{
  "address": "0x23bfdcC90c6DC575b7e5aa999885F8950f0932DF",
  "abi": [
    {
      "inputs": [
        {
          "internalType": "uint256",
          "name": "",
          "type": "uint256"
        },
        {
          "internalType": "uint256",
          "name": "",
          "type": "uint256"
        }
      ],
      "name": "adjMatrix",
      "outputs": [
        {
          "internalType": "uint8",
          "name": "",
          "type": "uint8"
        }
      ],
      "stateMutability": "view",
      "type": "function"
    },
    {
      "inputs": [
        {
          "internalType": "uint256",
          "name": "source",
          "type": "uint256"
        }
      ],
      "name": "bfs",
      "outputs": [
        {
          "internalType": "int256[]",
          "name": "",
          "type": "int256[]"
        }
      ],
      "stateMutability": "nonpayable",
      "type": "function"
    },
    {
      "inputs": [
        {
          "internalType": "uint256",
          "name": "source",
          "type": "uint256"
        }
      ],
      "name": "calculating",
      "outputs": [],
      "stateMutability": "nonpayable",
      "type": "function"
    },
    {
      "inputs": [
        {
          "internalType": "uint256",
          "name": "",
          "type": "uint256"
        }
      ],
      "name": "distance",
      "outputs": [
        {
          "internalType": "int256",
          "name": "",
          "type": "int256"
        }
      ],
      "stateMutability": "view",
      "type": "function"
    },
    {
      "inputs": [
        {
          "internalType": "uint256",
          "name": "",
          "type": "uint256"
        },
        {
          "internalType": "uint256",
          "name": "",
          "type": "uint256"
        }
      ],
      "name": "encrypted_matrix",
      "outputs": [
        {
          "internalType": "euint8",
          "name": "",
          "type": "uint256"
        }
      ],
      "stateMutability": "view",
      "type": "function"
    },
    {
      "inputs": [],
      "name": "lengths",
      "outputs": [
        {
          "internalType": "uint256",
          "name": "",
          "type": "uint256"
        }
      ],
      "stateMutability": "view",
      "type": "function"
    },
    {
      "inputs": [
        {
          "internalType": "uint256",
          "name": "i",
          "type": "uint256"
        }
      ],
      "name": "query_distance_matrix",
      "outputs": [
        {
          "internalType": "int256",
          "name": "",
          "type": "int256"
        }
      ],
      "stateMutability": "view",
      "type": "function"
    },
    {
      "inputs": [
        {
          "internalType": "uint8",
          "name": "y",
          "type": "uint8"
        }
      ],
      "name": "set_alpha",
      "outputs": [],
      "stateMutability": "nonpayable",
      "type": "function"
    },
    {
      "inputs": [
        {
          "internalType": "bytes",
          "name": "def",
          "type": "bytes"
        },
        {
          "internalType": "uint8",
          "name": "rows",
          "type": "uint8"
        },
        {
          "internalType": "uint8",
          "name": "cols",
          "type": "uint8"
        }
      ],
      "name": "set_default",
      "outputs": [],
      "stateMutability": "nonpayable",
      "type": "function"
    },
    {
      "inputs": [
        {
          "internalType": "bytes",
          "name": "v",
          "type": "bytes"
        },
        {
          "internalType": "uint256",
          "name": "i",
          "type": "uint256"
        }
      ],
      "name": "set_value",
      "outputs": [],
      "stateMutability": "nonpayable",
      "type": "function"
    },
    {
      "inputs": [
        {
          "internalType": "bytes",
          "name": "v",
          "type": "bytes"
        },
        {
          "internalType": "uint256",
          "name": "i",
          "type": "uint256"
        },
        {
          "internalType": "uint256",
          "name": "j",
          "type": "uint256"
        }
      ],
      "name": "set_value_i",
      "outputs": [],
      "stateMutability": "nonpayable",
      "type": "function"
    },
    {
      "inputs": [
        {
          "internalType": "uint8",
          "name": "u",
          "type": "uint8"
        }
      ],
      "name": "setrows",
      "outputs": [],
      "stateMutability": "nonpayable",
      "type": "function"
    },
    {
      "inputs": [],
      "name": "show_cal",
      "outputs": [
        {
          "internalType": "uint8",
          "name": "",
          "type": "uint8"
        }
      ],
      "stateMutability": "view",
      "type": "function"
    },
    {
      "inputs": [],
      "name": "show_val",
      "outputs": [
        {
          "internalType": "uint8",
          "name": "",
          "type": "uint8"
        }
      ],
      "stateMutability": "view",
      "type": "function"
    },
    {
      "inputs": [],
      "name": "sum",
      "outputs": [
        {
          "internalType": "uint8",
          "name": "",
          "type": "uint8"
        }
      ],
      "stateMutability": "view",
      "type": "function"
    },
    {
      "inputs": [],
      "name": "value",
      "outputs": [
        {
          "internalType": "euint8",
          "name": "",
          "type": "uint256"
        }
      ],
      "stateMutability": "view",
      "type": "function"
    }
  ],
  "transactionHash": "0xe42224936615bb6bc86aec585c5430c9183e4e3b66dd676f25b97c00e30d2960",
  "args": [],
  "numDeployments": 16,
  "solcInputHash": "eb8b0f29bd324e07b8b23022cd41757b",
  "bytecode": "0x612713805460ff1916905560646080818152610d206040529060a0610c80803683375050815161003792612716925060200190610049565b50348015610043575f80fd5b506100a6565b828054828255905f5260205f20908101928215610082579160200282015b82811115610082578251825591602001919060010190610067565b5061008e929150610092565b5090565b5b8082111561008e575f8155600101610093565b610f20806100b35f395ff3fe608060405234801561000f575f80fd5b50600436106100fb575f3560e01c806390ff5aed11610093578063bf93054511610063578063bf93054514610221578063dab1fa1214610234578063def587bf1461023d578063ec1790bd14610250575f80fd5b806390ff5aed146101b2578063a1dfe497146101dd578063a7a3069b146101f0578063bc7721cf14610215575f80fd5b80635531a9aa116100ce5780635531a9aa14610157578063791f437e14610171578063853255cc146101915780638d6c37f51461019f575f80fd5b80630b52135e146100ff57806333c05eac146101255780633fa4f2451461013a578063406024ff14610144575b5f80fd5b61011261010d366004610bcc565b610263565b6040519081526020015b60405180910390f35b610138610133366004610c28565b610288565b005b6101126127115481565b610138610152366004610bcc565b6102f5565b6127135460ff165b60405160ff909116815260200161011c565b61018461017f366004610bcc565b610462565b60405161011c9190610c70565b6127135461015f9060ff1681565b6101386101ad366004610cc8565b6106bf565b6101386101c0366004610d29565b612713805460ff9092166101000261ff0019909216919091179055565b6101126101eb366004610d42565b610761565b6101386101fe366004610d29565b612715805460ff191660ff92909216919091179055565b6127155460ff1661015f565b61011261022f366004610bcc565b61078a565b61271654610112565b61015f61024b366004610d42565b6107aa565b61013861025e366004610d62565b6107f2565b5f612716828154811061027857610278610daf565b905f5260205f2001549050919050565b6102c683838080601f0160208091040260200160405190810160405280939291908181526020018383808284375f9201919091525061086092505050565b600182606481106102d9576102d9610daf565b6064020182606481106102ee576102ee610daf565b0155505050565b5f5b6127155460ff1681101561041857600260015b612716838154811061031e5761031e610daf565b905f5260205f20015481121561034357610339826002610dd7565b915060010161030a565b505f61034f6009610871565b90505f610368610360846001610dfa565b60ff16610871565b90505f6103a76103a16001876064811061038457610384610daf565b60640201876064811061039957610399610daf565b01548561087c565b836108b1565b90505f6103dd82600189606481106103c1576103c1610daf565b6064020188606481106103d6576103d6610daf565b01546108b1565b90505f6103f3826103ee6008610871565b61087c565b9050610402612714548261087c565b612714555050600190940193506102f792505050565b506127135461043b9061043290610100900460ff16610871565b6127145461087c565b61271481905561044a906108df565b612713805460ff191660ff9290921691909117905550565b6127155460609060ff165f5b612716548110156104a2575f19612716828154811061048f5761048f610daf565b5f9182526020909120015560010161046e565b505f61271684815481106104b8576104b8610daf565b905f5260205f2001819055505f8167ffffffffffffffff8111156104de576104de610e27565b604051908082528060200260200182016040528015610507578160200160208202803683370190505b5090505f8085838261051881610e3b565b93508151811061052a5761052a610daf565b6020026020010181815250505b80821015610664575f838361054b81610e3b565b94508151811061055d5761055d610daf565b602002602001015190505f5b6127155460ff1681101561065d576105b56105b06001846064811061059057610590610daf565b6064020183606481106105a5576105a5610daf565b0154612711546108e9565b610917565b80156105dd575061271681815481106105d0576105d0610daf565b905f5260205f2001545f19145b156106555761271682815481106105f6576105f6610daf565b905f5260205f200154600161060b9190610e53565b612716828154811061061f5761061f610daf565b5f9182526020909120015580858461063681610e3b565b95508151811061064857610648610daf565b6020026020010181815250505b600101610569565b5050610537565b6127168054806020026020016040519081016040528092919081815260200182805480156106af57602002820191905f5260205f20905b81548152602001906001019080831161069b575b5050505050945050505050919050565b6106fd84848080601f0160208091040260200160405190810160405280939291908181526020018383808284375f9201919091525061086092505050565b612711555f5b8260ff1681101561075a575f5b8260ff1681101561075157612711546001836064811061073257610732610daf565b60640201826064811061074757610747610daf565b0155600101610710565b50600101610703565b5050505050565b60018260648110610770575f80fd5b606402018160648110610781575f80fd5b01549150829050565b612712818154811061079a575f80fd5b5f91825260209091200154905081565b5f82815481106107b8575f80fd5b905f5260205f200181815481106107cd575f80fd5b905f5260205f209060209182820401919006915091509054906101000a900460ff1681565b61083084848080601f0160208091040260200160405190810160405280939291908181526020018383808284375f9201919091525061086092505050565b6001836064811061084357610843610daf565b60640201826064811061085857610858610daf565b015550505050565b5f61086b825f610929565b92915050565b5f61086b825f6109bc565b5f8261088e5761088b5f610871565b92505b8161089f5761089c5f610871565b91505b6108aa83835f610a31565b9392505050565b5f826108c3576108c05f610871565b92505b816108d4576108d15f610871565b91505b6108aa83835f610ac7565b5f61086b82610b19565b5f826108fb576108f85f610871565b92505b8161090c576109095f610871565b91505b6108aa83835f610b7a565b5f61092182610b19565b151592915050565b5f80838360f81b604051602001610941929190610e9c565b60408051601f1981840301815290829052630964a5d960e31b82529150605d90634b252ec890610975908490600401610eca565b602060405180830381865afa158015610990573d5f803e3d5ffd5b505050506040513d601f19601f820116820180604052508101906109b49190610efc565b949350505050565b604051631ce2e8d760e31b8152600481018390526001600160f81b031960f883901b1660248201525f90605d9063e71746b890604401602060405180830381865afa158015610a0d573d5f803e3d5ffd5b505050506040513d601f19601f820116820180604052508101906108aa9190610efc565b5f808215610a445750600160f81b610a47565b505f5b60405163f953e42760e01b815260048101869052602481018590526001600160f81b031982166044820152605d9063f953e427906064015b602060405180830381865afa158015610a9a573d5f803e3d5ffd5b505050506040513d601f19601f82011682018060405250810190610abe9190610efc565b95945050505050565b5f808215610ada5750600160f81b610add565b505f5b60405163816d57d360e01b815260048101869052602481018590526001600160f81b031982166044820152605d9063816d57d390606401610a7f565b6040516301693b9160e61b8152600481018290525f90605d90635a4ee44090602401602060405180830381865afa158015610b56573d5f803e3d5ffd5b505050506040513d601f19601f8201168201806040525081019061086b9190610efc565b5f808215610b8d5750600160f81b610b90565b505f5b604051630d7c62eb60e31b815260048101869052602481018590526001600160f81b031982166044820152605d90636be3175890606401610a7f565b5f60208284031215610bdc575f80fd5b5035919050565b5f8083601f840112610bf3575f80fd5b50813567ffffffffffffffff811115610c0a575f80fd5b602083019150836020828501011115610c21575f80fd5b9250929050565b5f805f60408486031215610c3a575f80fd5b833567ffffffffffffffff811115610c50575f80fd5b610c5c86828701610be3565b909790965060209590950135949350505050565b602080825282518282018190525f9190848201906040850190845b81811015610ca757835183529284019291840191600101610c8b565b50909695505050505050565b803560ff81168114610cc3575f80fd5b919050565b5f805f8060608587031215610cdb575f80fd5b843567ffffffffffffffff811115610cf1575f80fd5b610cfd87828801610be3565b9095509350610d10905060208601610cb3565b9150610d1e60408601610cb3565b905092959194509250565b5f60208284031215610d39575f80fd5b6108aa82610cb3565b5f8060408385031215610d53575f80fd5b50508035926020909101359150565b5f805f8060608587031215610d75575f80fd5b843567ffffffffffffffff811115610d8b575f80fd5b610d9787828801610be3565b90989097506020870135966040013595509350505050565b634e487b7160e01b5f52603260045260245ffd5b634e487b7160e01b5f52601160045260245ffd5b60ff8181168382160290811690818114610df357610df3610dc3565b5092915050565b5f60ff831680610e1857634e487b7160e01b5f52601260045260245ffd5b8060ff84160491505092915050565b634e487b7160e01b5f52604160045260245ffd5b5f60018201610e4c57610e4c610dc3565b5060010190565b8082018281125f831280158216821582161715610e7257610e72610dc3565b505092915050565b5f5b83811015610e94578181015183820152602001610e7c565b50505f910152565b5f8351610ead818460208801610e7a565b6001600160f81b0319939093169190920190815260010192915050565b602081525f8251806020840152610ee8816040850160208701610e7a565b601f01601f19169190910160400192915050565b5f60208284031215610f0c575f80fd5b505191905056fea164736f6c6343000816000a",
  "devdoc": {
    "kind": "dev",
    "methods": {},
    "version": 1
  },
  "userdoc": {
    "kind": "user",
    "methods": {},
    "version": 1
  },
  "storageLayout": {
    "storage": [
      {
        "astId": 6,
        "contract": "contracts/BfsContract.sol:BfsContract",
        "label": "adjMatrix",
        "offset": 0,
        "slot": "0",
        "type": "t_array(t_array(t_uint8)dyn_storage)dyn_storage"
      },
      {
        "astId": 13,
        "contract": "contracts/BfsContract.sol:BfsContract",
        "label": "encrypted_matrix",
        "offset": 0,
        "slot": "1",
        "type": "t_array(t_array(t_userDefinedValueType(euint8)1728)100_storage)100_storage"
      },
      {
        "astId": 16,
        "contract": "contracts/BfsContract.sol:BfsContract",
        "label": "value",
        "offset": 0,
        "slot": "10001",
        "type": "t_userDefinedValueType(euint8)1728"
      },
      {
        "astId": 19,
        "contract": "contracts/BfsContract.sol:BfsContract",
        "label": "distance",
        "offset": 0,
        "slot": "10002",
        "type": "t_array(t_int256)dyn_storage"
      },
      {
        "astId": 22,
        "contract": "contracts/BfsContract.sol:BfsContract",
        "label": "sum",
        "offset": 0,
        "slot": "10003",
        "type": "t_uint8"
      },
      {
        "astId": 24,
        "contract": "contracts/BfsContract.sol:BfsContract",
        "label": "alpha",
        "offset": 1,
        "slot": "10003",
        "type": "t_uint8"
      },
      {
        "astId": 27,
        "contract": "contracts/BfsContract.sol:BfsContract",
        "label": "temp",
        "offset": 0,
        "slot": "10004",
        "type": "t_userDefinedValueType(euint8)1728"
      },
      {
        "astId": 29,
        "contract": "contracts/BfsContract.sol:BfsContract",
        "label": "r",
        "offset": 0,
        "slot": "10005",
        "type": "t_uint8"
      },
      {
        "astId": 146,
        "contract": "contracts/BfsContract.sol:BfsContract",
        "label": "distances",
        "offset": 0,
        "slot": "10006",
        "type": "t_array(t_int256)dyn_storage"
      }
    ],
    "types": {
      "t_array(t_array(t_uint8)dyn_storage)dyn_storage": {
        "base": "t_array(t_uint8)dyn_storage",
        "encoding": "dynamic_array",
        "label": "uint8[][]",
        "numberOfBytes": "32"
      },
      "t_array(t_array(t_userDefinedValueType(euint8)1728)100_storage)100_storage": {
        "base": "t_array(t_userDefinedValueType(euint8)1728)100_storage",
        "encoding": "inplace",
        "label": "euint8[100][100]",
        "numberOfBytes": "320000"
      },
      "t_array(t_int256)dyn_storage": {
        "base": "t_int256",
        "encoding": "dynamic_array",
        "label": "int256[]",
        "numberOfBytes": "32"
      },
      "t_array(t_uint8)dyn_storage": {
        "base": "t_uint8",
        "encoding": "dynamic_array",
        "label": "uint8[]",
        "numberOfBytes": "32"
      },
      "t_array(t_userDefinedValueType(euint8)1728)100_storage": {
        "base": "t_userDefinedValueType(euint8)1728",
        "encoding": "inplace",
        "label": "euint8[100]",
        "numberOfBytes": "3200"
      },
      "t_int256": {
        "encoding": "inplace",
        "label": "int256",
        "numberOfBytes": "32"
      },
      "t_uint8": {
        "encoding": "inplace",
        "label": "uint8",
        "numberOfBytes": "1"
      },
      "t_userDefinedValueType(euint8)1728": {
        "encoding": "inplace",
        "label": "euint8",
        "numberOfBytes": "32"
      }
    }
  }
}